:100000000C9453000C947B000C947B000C947B00AC
:100010000C947B000C947B000C947B000C94C60326
:100020000C947B000C947B000C947B000C947B0064
:100030000C947C030C947B000C947B000C947B0050
:100040000C947B000C947B000C947B000C947B0044
:100050000C947B000C947B000C947B000C94FD04AE
:100060000C9482040C947B000C947B000C947B0019
:1000700000302C2800322E2A00312D29002F2B276A
:100080000201010101010101010303030303020253
:100090000203018040201008040201201004020124
:1000A00008040208630711241FBECFEFD4E0DEBFAF
:1000B000CDBF11E0A0E0B1E0ECE0F0E102C00590BE
:1000C0000D92A430B107D9F721E0A4E0B1E001C05E
:1000D0001D92A336B207E1F710E0C3E5D0E004C0FB
:1000E0002197FE010E94FE07C235D107C9F70E9481
:1000F00066050C9404080C94000091E09093620152
:10010000880F80930401909361019093600108959A
:10011000909162019923A1F090916001903240F595
:1001200090916101E92FF0E0EC5FFE4F808381E068
:10013000890F809361018093600181E090E00895D0
:1001400020915E0190915D012F5F921B9F7081F065
:1001500090915E019F5F9F7020915D019217E1F386
:10016000E92FF0E0EC5EFE4F808390935E01E5CFD7
:1001700090E080E0089580916001882339F020911B
:10018000610182131CC08FEF9FEF089590915C0175
:1001900080915B01891B8F70B1F390915C0180911C
:1001A0005B019817E1F3E0915C01EF5FEF70E09382
:1001B0005C01F0E0EC5FFE4F808190E00895E22F5B
:1001C000F0E0EC5FFE4F808190E02F5F20936101B3
:1001D00008958F929F92AF92BF92FF920F931F93B9
:1001E000CF93DF93F09054012BE02F1508F44EC00D
:1001F0009C018091560108E512E0081B110987FD5A
:100200001395000F111F000F111F80915501C8E8B1
:10021000D0E0C81BD10987FDD395CC0FDD1FCC0FD3
:10022000DD1F4E010D2E000CAA08BB08B801012EDF
:10023000000C880B990B681979098A099B09032E10
:10024000000C440B550B0E947E0724EB30E040E08D
:1002500050E00E949707820E931EA41EB51E8C16B6
:100260009D062CF0E801801691060CF4E4012FB7EE
:10027000F89422978F2D90E063E070E00E94E107F0
:10028000805D9E4FFC01D283C1832FBFDF91CF9150
:100290001F910F91FF90BF90AF909F908F90089506
:1002A00090E0FC01EE56FF4F2491FC01E058FF4F17
:1002B000E491EE2361F0F0E0E458FF4FA491B0E048
:1002C000EC91E22381E090E021F480E0089580E069
:1002D00090E00895CF93DF93A82FB0E0FD01EE5694
:1002E000FF4F2491A058BF4FFD01A491AA23E9F02C
:1002F0008D30F1F48BB38F738BBBB0E0FD01E85808
:10030000FF4FC491D0E0AC58BF4FFD01A491B0E0C5
:10031000922F909561111FC02FB7F894888189237F
:1003200088838C9189238C932FBFDF91CF9108957F
:10033000833019F48BB38F7CDFCF8E3031F4809112
:1003400072008F7380937200D8CF8230B1F68091A3
:1003500072008F7CF7CF3FB7F894E881E22BE883F7
:100360008C9189238C933FBFE0CFCF93DF9386FF9F
:1003700007C08F73A5E0863008F0A6E1A81B8A2F7E
:10038000A82FB0E0FD01EE56FF4F2491A058BF4FBB
:10039000FD01A491AA2319F1B0E0FD01E059FF4F3E
:1003A000E491CE2FD0E0FD01E858FF4FE4918E2F6D
:1003B00090E0AC58BF4FFD01A491B0E0322F3095D2
:1003C000611110C04FB7F894288123232883FC01C2
:1003D0002081232320838C9138233C934FBFDF91CE
:1003E000CF910895623071F45FB7F8944881342357
:1003F0003883FC013081322B3083EC912E2B2C93EF
:100400005FBFEDCF9FB7F8948C9138233C93E88180
:100410002E2B28839FBFE3CF809154018C3008F0AE
:1004200054C061E083E00E94B50120915401822F05
:1004300090E063E070E00E94E107FC01E05DFE4FA8
:100440009081907C93609083109255011092560198
:10045000822F6CE00E94F207482F90E06CE070E081
:100460000E94E107FC0130E020E0CF01820F931FE2
:1004700063E070E00E94E107805D9E4FDC018C919B
:1004800086FD16C02F5F3F4F2C30310571F74111AB
:100490000FC01092720082E08093710010926F0082
:1004A00010926E0089B7806489BF8AB780648ABF62
:1004B0008091540190E063E070E00E94E107FC014C
:1004C000E05DFE4F808180648083809154010895B7
:1004D0003FB7F8948091280190912901A0912A01B9
:1004E000B0912B0129B309B601FE05C02F3F19F0C9
:1004F0000196A11DB11D3FBFBA2FA92F982F8827A4
:10050000BC01CD01620F711D811D911D43E0660F7D
:10051000771F881F991F4A95D1F70895CF92DF92D0
:10052000EF92FF92CF93DF936B017C010E946802F0
:10053000EB010E9468026C1B7D0B683E7340A0F0CB
:10054000C114D104E104F10439F4DF91CF91FF909B
:10055000EF90DF90CF90089581E0C81AD108E108AC
:10056000F108C851DC4FE5CFC114D104E104F10416
:1005700001F7EBCF8BBD8BE29EE09A95F1F78ABD38
:10058000399BFECF96E09A95F1F700C08ABD0BB477
:1005900006FEF2CF8EE08A95F1F78CB59FEF9CBDF9
:1005A000619A0895FF920F931F93CF93DF93062FC5
:1005B000142F21E020935F01FC01208120FD03C066
:1005C00023E020935F01499A399BFECFF6E0FA952C
:1005D000F1F700C0699826E02A95F1F700C0499824
:1005E000699A0BB407FC0BC087E080935F0110E0B1
:1005F000812FDF91CF911F910F91FF900895EC0112
:10060000FF24FA9480915F01837029F149988881D1
:100610008CBD80EF0E94BA0261988EEF0E94BA02F0
:1006200080FF0CC080915F01182F117080FF02C005
:1006300086E0DBCF85E080935F01DACF80915F01B8
:100640008E7F80935F01015021960111DBCF111144
:1006500010C011E0CDCF619880EF0E94BA0288836C
:10066000013029F4FCBC8EEF0E94BA02ECCF1CBC16
:10067000FACF6998499A399BFECF86E08A95F1F7BF
:1006800000C0699AEEE0EA95F1F70BB405FCE1CF02
:1006900088E0D1CF41E06091600184E091E00E9468
:1006A000D2021092610110926001109262018111D8
:1006B00010C080915F01853041F0863021F081309B
:1006C00031F481E0089582E0089583E0089584E0A4
:1006D000089580E00895CF93DF93D82FC62F88E642
:1006E0000E947D008D2F0E9488008C2F0E94880020
:1006F000DF91CF910C944A031F920F920FB60F9285
:1007000011242F933F938F939F93AF93BF93809127
:10071000570190915801A0915901B0915A0130911F
:10072000270126E0230F2D3768F129E8230F0396D0
:10073000A11DB11D2093270180935701909358016B
:10074000A0935901B0935A018091280190912901F9
:10075000A0912A01B0912B010196A11DB11D80939A
:10076000280190932901A0932A01B0932B01BF91F6
:10077000AF919F918F913F912F910F900FBE0F904E
:100780001F9018950296A11DB11DD4CF1F920F92F4
:100790000FB60F9211242F933F934F935F936F9354
:1007A0007F938F939F93AF93BF93CF93DF93EF93F9
:1007B000FF9380912601C0912501D0E087FF24C0DE
:1007C00010926F0010926E00809126018F5F8093CF
:1007D000260180912601082E000C990B8C179D078D
:1007E00024F4809126018C30C4F180916E009091A8
:1007F0006F00049680329E4408F47AC080916E00A7
:1008000090916F00049676C080912601082E000C0E
:10081000990B8C179D07C4F680912601082E000CB9
:10082000990B63E070E00E94E107805D9E4FFC0140
:10083000808186FFC9CF80912601082E000C990B7C
:1008400063E070E00E94E107805D9E4FFC018081C3
:1008500060E08F730E946A01B7CF20916E003091E3
:100860006F0080912601082E000C990B63E070E068
:100870000E94E107805D9E4FFC0181819281280FDB
:10088000391F30936D0020936C0080912601082E53
:10089000000C990B63E070E00E94E107805D9E4FC1
:1008A000FC01808186FF11C080912601082E000C7A
:1008B000990B63E070E00E94E107805D9E4FFC01B0
:1008C000808161E08F730E946A01FF91EF91DF9157
:1008D000CF91BF91AF919F918F917F916F915F91D8
:1008E0004F913F912F910F900FBE0F901F90189531
:1008F00080E29EE490936D0080936C008FEF809374
:100900002601E3CF1F920F920FB60F9211242F935F
:100910008F939F93EF93FF9380912401823009F48A
:100920005FC078F4882349F1813009F43FC0FF911A
:10093000EF919F918F912F910F900FBE0F901F906D
:100940001895843009F452C050F1853081F784E065
:10095000809324019CB580915B018F5F8F70209103
:100960005C01281709F447C080935B01E0915B01AB
:10097000F0E0EC5FFE4F90830CC08CB5882319F03B
:100980008CB5869579F40CB400FE07C081E08093A5
:1009900024011CBC619A8EE721C084E0F8CF8CB59D
:1009A000882321F0619888EA8ABD17C080915D0193
:1009B00090915E019817B1F380915D018F5F8F7008
:1009C00080935D01E0915D01F0E0EC5EFE4F80817F
:1009D0008CBD82E080932401619A80E78BBDA7CF14
:1009E00083E08093240161981CBCD5CF85E080937F
:1009F00024016198F2CF6198CECF1F920F920FB66B
:100A00000F9211248F93109224016198399B04C096
:100A1000599BFCCF88EA01C088EF8ABD80EF8BBD6F
:100A20008F910F900FBE0F901F901895CF92DF926D
:100A3000EF92FF92CF9388E60E947D008FE00E94A4
:100A400088000E944A038FB7F894C0905701D09055
:100A50005801E0905901F0905A018FBFC1ED2FB7B6
:100A6000F8948091570190915801A0915901B0914B
:100A70005A012FBF8C199D09AE09BF098436910513
:100A8000A105B10508F5C093040141E062E084E0EE
:100A900091E00E94D20291E090936101811109C01E
:100AA0009093600162E070E080E090E00E948E022E
:100AB000D6CF82E0809360010E94BB00CF91FF906F
:100AC000EF90DF90CF90089580E0F8CFCF93DF9341
:100AD000CDB7DEB72A970FB6F894DEBF0FBECDBFF5
:100AE00078948BB383608BBBD3988AB3887F836001
:100AF0008ABB8AB782608ABF80917100887F8093A9
:100B00007100809172008C7F81608093720080916F
:100B10007100877E8093710080917100887F83606F
:100B20008093710083B1887F866083B91F9A61E0EA
:100B300084E00E94B50161E082E00E94B50161E0BD
:100B400083E00E94B50161E086E00E94B50160E0AB
:100B500080E40E94B50162E087E00E94B50162E096
:100B600088E00E94B50162E089E00E94B50162E080
:100B70008AE00E94B50161E084E00E946A0160E0C1
:100B800082E00E946A0160E083E00E946A0161E005
:100B900086E00E946A0188ED98E20FB6F894A89565
:100BA0008FBD90BF0FBEA895A895109261011092BD
:100BB000600110926201699A499A419A619A8FEF95
:100BC0008CBD8AE28ABD80EF8BBD88E60E947D00E5
:100BD0000E944A03811112C064E08EE00E946B0300
:100BE0000E941605682F677F8FE00E946B030E94AA
:100BF0001605682F6D7F8FE00E946B0310922F0106
:100C000087E00E945001892B19F481E080932F0125
:100C100088E00E945001892B29F480912F018E5F7A
:100C200080932F0189E00E945001892B29F4809143
:100C30002F018C5F80932F018AE00E945001892B45
:100C400009F04CC081E080932C0180912C01882315
:100C500009F447C087E180932E018BE380932D0137
:100C600088E60E947D0080E00E9488000E944A037E
:100C70008FB7F8948090570190905801A090590137
:100C8000B0905A018FBF01ED2FB7F89480915701B2
:100C900090915801A0915901B0915A012FBF881924
:100CA0009909AA09BB0984369105A105B105E0F5AA
:100CB0000093040141E068E084E091E00E94D202E8
:100CC00091E090936101811112C09093600162E004
:100CD00070E080E090E00E948E02D6CF10922C014E
:100CE000B4CF8CE080932E0110922D01B9CF88E013
:100CF00080936001CE0101967C0110E00E94BB0050
:100D0000982F153049F082958F706AE00E94D807BD
:100D10009F70980FF70190831F5FFFEFEF1AFF0A94
:100D2000173061F71A81FB8020912E018F2D622FE1
:100D30000E94F2078F5F0E94D807282F883108F0A1
:100D4000285130912D01812F632F0E94F2078F5F70
:100D50000E94D8078C3308F08C53409100015091C9
:100D60000101609102017091030149835A836B83F1
:100D70007C83888729871A8688E60E947D008BE01D
:100D80000E9488006E0188E0C80ED11CFE013196D9
:100D90007F0110E00AE080EC123071F0F6018081F2
:100DA000602F0E94F2078295807F980FF701808163
:100DB000879588278795892B0E9488001F5FFFEF02
:100DC000CF1ADF0A8FEFE81AF80A133021F70E94D2
:100DD0004A0366E08EE00E946B0361E082E00E94BD
:100DE000B50161E082E00E946A010E940C0289E57F
:100DF00090E00E94E90061E086E00E946A0160EDF7
:100E000077E080E090E00E948E0260E086E00E9441
:100E10006A0160E083E00E946A0160E082E00E9473
:100E20006A01C12CD12C760180912F0190E06CE3F6
:100E300070E00E94E107092E000CAA0BBB0B61E0D9
:100E4000C816D906EA06FB06D4F486E00E946A01B9
:100E500064E170E080E090E00E948E0260E086E055
:100E60000E946A0164ED73E080E090E00E948E02CF
:100E7000A8959FEFC91AD90AE90AF90AD5CF82E0E5
:100E80000E946A010E940C0283E090E00E94E90047
:100E900061E086E00E946A0160ED77E080E090E02A
:100EA0000E948E0260E086E00E946A0160E083E0BA
:100EB0000E946A0160E082E00E946A0160E084E0D2
:100EC0000E946A01FFCF809125018C3098F491E057
:100ED000980F909325018093540190E063E070E0B7
:100EE0000E94E107805D9E4F2CED35E0FC013283CE
:100EF000218308958FEF809354010895EE27FF27F3
:100F0000AA27BB2708C0A20FB31FE41FF51F220F9B
:100F1000331F441F551F969587957795679598F3CE
:100F20007040A9F7009799F7BD01CF010895052EEC
:100F300097FB1EF400940E94AE0757FD07D00E9455
:100F4000B60707FC03D04EF40C94AE0750954095BD
:100F5000309521953F4F4F4F5F4F08959095809565
:100F6000709561957F4F8F4F9F4F0895A1E21A2E84
:100F7000AA1BBB1BFD010DC0AA1FBB1FEE1FFF1F3D
:100F8000A217B307E407F50720F0A21BB30BE40B8D
:100F9000F50B661F771F881F991F1A9469F76095D4
:100FA0007095809590959B01AC01BD01CF0108958E
:100FB000002480FD060E660F11F08695D1F7802D76
:100FC00008950024552704C0080E591F880F991F43
:100FD000009729F076956795B8F37105B9F7802DDC
:100FE000952F0895991B79E004C0991F961708F072
:100FF000961B881F7A95C9F780950895EE0FFF1FFD
:0C1000000590F491E02D0994F894FFCFC6
:04100C0000000101DE
:00000001FF
