:100000000C9453000C947B000C947B000C947B00AC
:100010000C947B000C947B000C947B000C94980354
:100020000C947B000C947B000C947B000C947B0064
:100030000C944E030C947B000C947B000C947B007E
:100040000C947B000C947B000C947B000C947B0044
:100050000C947B000C947B000C947B000C94CF04DC
:100060000C9454040C947B000C947B000C947B0047
:1000700000302C2800322E2A00312D29002F2B276A
:100080000201010101010101010303030303020253
:100090000203018040201008040201201004020124
:1000A00008040208E20611241FBECFEFD4E0DEBF31
:1000B000CDBF11E0A0E0B1E0E8EFFEE002C00590A6
:1000C0000D92A430B107D9F721E0A4E0B1E001C05E
:1000D0001D92A336B207E1F710E0C3E5D0E004C0FB
:1000E0002197FE010E947407C235D107C9F70E940B
:1000F0003A050C947A070C94000091E09093620109
:10010000880F80930401909361019093600108959A
:10011000909162019923A1F090916001903240F595
:1001200090916101E92FF0E0EC5FFE4F808381E068
:10013000890F809361018093600181E090E00895D0
:1001400020915E0190915D012F5F921B9F7081F065
:1001500090915E019F5F9F7020915D019217E1F386
:10016000E92FF0E0EC5EFE4F808390935E01E5CFD7
:1001700090E080E008958F929F92AF92BF92FF929D
:100180000F931F93CF93DF93F09054012BE02F1523
:1001900008F44EC09C018091560108E512E0081B4E
:1001A000110987FD1395000F111F000F111F80917A
:1001B0005501C8E8D0E0C81BD10987FDD395CC0F05
:1001C000DD1FCC0FDD1F4E010D2E000CAA08BB0851
:1001D000B801012E000C880B990B681979098A095E
:1001E0009B09032E000C440B550B0E94FD0624EBCB
:1001F00030E040E050E00E941607820E931EA41EDD
:10020000B51E8C169D062CF0E801801691060CF4A4
:10021000E4012FB7F89422978F2D90E063E070E00F
:100220000E945707805D9E4FFC01D283C1832FBF80
:10023000DF91CF911F910F91FF90BF90AF909F9052
:100240008F90089590E0FC01EE56FF4F2491FC0141
:10025000E058FF4FE491EE2361F0F0E0E458FF4FE7
:10026000A491B0E0EC91E22381E090E021F480E001
:10027000089580E090E00895CF93DF93A82FB0E039
:10028000FD01EE56FF4F2491A058BF4FFD01A491F0
:10029000AA23E9F08D30F1F48BB38F738BBBB0E000
:1002A000FD01E858FF4FC491D0E0AC58BF4FFD01AD
:1002B000A491B0E0922F909561111FC02FB7F894D0
:1002C0008881892388838C9189238C932FBFDF9128
:1002D000CF910895833019F48BB38F7CDFCF8E30AC
:1002E00031F4809172008F7380937200D8CF823086
:1002F000B1F6809172008F7CF7CF3FB7F894E88118
:10030000E22BE8838C9189238C933FBFE0CFCF937E
:10031000DF9386FF07C08F73A5E0863008F0A6E163
:10032000A81B8A2FA82FB0E0FD01EE56FF4F2491A5
:10033000A058BF4FFD01A491AA2319F1B0E0FD011F
:10034000E059FF4FE491CE2FD0E0FD01E858FF4F78
:10035000E4918E2F90E0AC58BF4FFD01A491B0E026
:10036000322F3095611110C04FB7F89428812323A4
:100370002883FC012081232320838C9138233C9304
:100380004FBFDF91CF910895623071F45FB7F89459
:10039000488134233883FC013081322B3083EC9147
:1003A0002E2B2C935FBFEDCF9FB7F8948C91382301
:1003B0003C93E8812E2B28839FBFE3CF809154018B
:1003C0008C3008F054C061E083E00E9487012091E6
:1003D0005401822F90E063E070E00E945707FC0117
:1003E000E05DFE4F9081907C936090831092550168
:1003F00010925601822F6CE00E946807482F90E00F
:100400006CE070E00E945707FC0130E020E0CF0173
:10041000820F931F63E070E00E945707805D9E4F3C
:10042000DC018C9186FD16C02F5F3F4F2C303105CB
:1004300071F741110FC01092720082E08093710039
:1004400010926F0010926E0089B7806489BF8AB7DE
:1004500080648ABF8091540190E063E070E00E9464
:100460005707FC01E05DFE4F8081806480838091AE
:10047000540108953FB7F894809128019091290183
:10048000A0912A01B0912B0129B309B601FE05C044
:100490002F3F19F00196A11DB11D3FBFBA2FA92F03
:1004A000982F8827BC01CD01620F711D811D911D00
:1004B00043E0660F771F881F991F4A95D1F708956B
:1004C000CF92DF92EF92FF92CF93DF936B017C018B
:1004D0000E943A02EB010E943A026C1B7D0B683EBF
:1004E0007340A0F0C114D104E104F10439F4DF91A8
:1004F000CF91FF90EF90DF90CF90089581E0C81AE0
:10050000D108E108F108C851DC4FE5CFC114D1048E
:10051000E104F10401F7EBCF8BBD8BE29EE09A95ED
:10052000F1F78ABD399BFECF96E09A95F1F700C0AE
:100530008ABD0BB406FEF2CF8EE08A95F1F78CB53A
:100540009FEF9CBD619A0895FF920F931F93CF93E5
:10055000DF93062F142F21E020935F01FC012081FF
:1005600020FD03C023E020935F01499A399BFECF11
:10057000F6E0FA95F1F700C0699826E02A95F1F7C0
:1005800000C04998699A0BB407FC0BC087E08093C0
:100590005F0110E0812FDF91CF911F910F91FF90AC
:1005A0000895EC01FF24FA9480915F01837029F192
:1005B000499888818CBD80EF0E948C0261988EEFF3
:1005C0000E948C0280FF0CC080915F01182F117077
:1005D00080FF02C086E0DBCF85E080935F01DACF49
:1005E00080915F018E7F80935F0101502196011100
:1005F000DBCF111110C011E0CDCF619880EF0E94C8
:100600008C028883013029F4FCBC8EEF0E948C029E
:10061000ECCF1CBCFACF6998499A399BFECF86E093
:100620008A95F1F700C0699AEEE0EA95F1F70BB40C
:1006300005FCE1CF88E0D1CF41E06091600184E02A
:1006400091E00E94A4021092610110926001109248
:100650006201811110C080915F01853041F08630C8
:1006600021F0813031F481E0089582E0089583E043
:10067000089584E0089580E00895CF93DF93D82F04
:10068000C62F88E60E947D008D2F0E9488008C2F47
:100690000E948800DF91CF910C941C031F920F924F
:1006A0000FB60F9211242F933F938F939F93AF9385
:1006B000BF938091590190915A01A0915B01B09133
:1006C0005C013091270126E0230F2D3768F129E8DE
:1006D000230F0396A11DB11D20932701809359017B
:1006E00090935A01A0935B01B0935C018091280123
:1006F00090912901A0912A01B0912B010196A11D91
:10070000B11D8093280190932901A0932A01B093F1
:100710002B01BF91AF919F918F913F912F910F909E
:100720000FBE0F901F9018950296A11DB11DD4CF3A
:100730001F920F920FB60F9211242F933F934F9356
:100740005F936F937F938F939F93AF93BF93CF9359
:10075000DF93EF93FF9380912601C0912501D0E0B4
:1007600087FF24C010926F0010926E0080912601C6
:100770008F5F8093260180912601082E000C990B33
:100780008C179D0724F4809126018C30C4F1809150
:100790006E0090916F00049680329E4408F47AC0F7
:1007A00080916E0090916F00049676C08091260132
:1007B000082E000C990B8C179D07C4F6809126011A
:1007C000082E000C990B63E070E00E945707805DD3
:1007D0009E4FFC01808186FFC9CF80912601082EA3
:1007E000000C990B63E070E00E945707805D9E4FFC
:1007F000FC01808160E08F730E943C01B7CF2091A3
:100800006E0030916F0080912601082E000C990B2C
:1008100063E070E00E945707805D9E4FFC0181817C
:100820009281280F391F30936D0020936C008091C6
:100830002601082E000C990B63E070E00E94570718
:10084000805D9E4FFC01808186FF11C08091260152
:10085000082E000C990B63E070E00E945707805D42
:100860009E4FFC01808161E08F730E943C01FF91EB
:10087000EF91DF91CF91BF91AF919F918F917F9138
:100880006F915F914F913F912F910F900FBE0F90FD
:100890001F90189580E29EE490936D0080936C0009
:1008A0008FEF80932601E3CF1F920F920FB60F9226
:1008B00011242F938F939F93EF93FF9380912401A3
:1008C000823009F45FC078F4882349F1813009F45B
:1008D0003FC0FF91EF919F918F912F910F900FBE8D
:1008E0000F901F901895843009F452C050F1853054
:1008F00081F784E0809324019CB5809157018F5F3C
:100900008F7020915801281709F447C08093570130
:10091000E0915701F0E0EC5FFE4F90830CC08CB586
:10092000882319F08CB5869579F40CB400FE07C0C5
:1009300081E0809324011CBC619A8EE721C084E091
:10094000F8CF8CB5882321F0619888EA8ABD17C05A
:1009500080915D0190915E019817B1F380915D01E6
:100960008F5F8F7080935D01E0915D01F0E0EC5E40
:10097000FE4F80818CBD82E080932401619A80E7E4
:100980008BBDA7CF83E08093240161981CBCD5CF99
:1009900085E0809324016198F2CF6198CECF1F92B9
:1009A0000F920FB60F9211248F9310922401619829
:1009B000399B04C0599BFCCF88EA01C088EF8ABDEF
:1009C00080EF8BBD8F910F900FBE0F901F901895E9
:1009D000CF92DF92EF92FF92CF9388E60E947D0044
:1009E0008FE00E9488000E941C038FB7F894C0908B
:1009F0005901D0905A01E0905B01F0905C018FBFEB
:100A0000C1ED2FB7F8948091590190915A01A091AE
:100A10005B01B0915C012FBF8C199D09AE09BF0924
:100A200084369105A105B10518F5C093040141E094
:100A300062E084E091E00E94A40291E09093610161
:100A4000811109C09093600162E070E080E090E065
:100A50000E946002D6CF92E09093600180910501E0
:100A600090936101CF91FF90EF90DF90CF90089528
:100A700080E0F8CFCF93DF9300D000D000D01F925A
:100A8000CDB7DEB778948BB383608BBBD3988AB332
:100A9000887F83608ABB8AB782608ABF8091710039
:100AA000887F80937100809172008C7F8160809339
:100AB000720080917100877E809371008091710037
:100AC000887F83608093710083B1887F866083B95B
:100AD0001F9A61E084E00E94870161E082E00E9449
:100AE000870161E083E00E94870161E086E00E9467
:100AF000870160E080E40E94870162E087E00E9455
:100B0000870162E088E00E94870162E089E00E943C
:100B1000870162E08AE00E94870161E084E00E9430
:100B20003C0160E082E00E943C0160E083E00E94C2
:100B30003C0161E086E00E943C0188ED98E20FB63E
:100B4000F894A8958FBD90BF0FBEA895A895109258
:100B500061011092600110926201699A499A419A6A
:100B6000619A8FEF8CBD8AE28ABD80EF8BBD88E6EB
:100B70000E947D000E941C03811112C064E08EE07F
:100B80000E943D030E94E804682F677F8FE00E9467
:100B90003D030E94E804682F6D7F8FE00E943D03B3
:100BA00010922F0187E00E942201892B19F481E025
:100BB00080932F0188E00E942201892B29F48091E3
:100BC0002F018E5F80932F0189E00E942201892BE3
:100BD00029F480912F018C5F80932F018AE00E947D
:100BE0002201892B09F0C1C081E080932C01809102
:100BF0002C01882309F4BCC087E180932E018BE38C
:100C000080932D0188E60E947D0080E00E9488008C
:100C100081E00E94880080E00E94880080E00E94BD
:100C2000880081E00E94880081E00E94880081E0C5
:100C30000E94880080E20E9488000E941C0380912C
:100C4000000190910101A0910201B09103018983FB
:100C50009A83AB83BC8380912E0190912D019D835B
:100C60008E831F8288E60E947D008BE00E948800B0
:100C70006E0185E0C80ED11CFE0131967F0110E0A7
:100C80000AE080EC123071F0F6018081602F0E9442
:100C900068078295807F980FF70180818795882764
:100CA0008795892B0E9488001F5FFFEFCF1ADF0A0C
:100CB0008FEFE81AF80A133021F70E941C0366E050
:100CC0008EE00E943D0361E082E00E94870161E0C6
:100CD00082E00E943C010E94DE0189E590E00E94D2
:100CE000BB0061E086E00E943C0160ED77E080E0BF
:100CF00090E00E94600260E086E00E943C0160E0BB
:100D000083E00E943C0160E082E00E943C01C12C33
:100D1000D12C760180912F0190E06CE370E00E946D
:100D20005707092E000CAA0BBB0B61E0C816D906A9
:100D3000EA06FB061CF586E00E943C0164E170E0D7
:100D400080E090E00E94600260E086E00E943C014A
:100D500064ED73E080E090E00E946002A8959FEF50
:100D6000C91AD90AE90AF90AD5CF10922C013FCF46
:100D70008CE080932E0110922D0144CF82E00E94DE
:100D80003C010E94DE0183E090E00E94BB0061E034
:100D900086E00E943C0160ED77E080E090E00E94F8
:100DA000600260E086E00E943C0160E083E00E9417
:100DB0003C0160E082E00E943C0160E084E00E942F
:100DC0003C01FFCF809125018C3098F491E0980F81
:100DD000909325018093540190E063E070E00E94BD
:100DE0005707805D9E4F2CED35E0FC013283218357
:100DF00008958FEF809354010895EE27FF27AA27C7
:100E0000BB2708C0A20FB31FE41FF51F220F331F1B
:100E1000441F551F969587957795679598F3704071
:100E2000A9F7009799F7BD01CF010895052E97FB0B
:100E30001EF400940E942D0757FD07D00E9435072D
:100E400007FC03D04EF40C942D0750954095309537
:100E500021953F4F4F4F5F4F089590958095709526
:100E600061957F4F8F4F9F4F0895A1E21A2EAA1BC5
:100E7000BB1BFD010DC0AA1FBB1FEE1FFF1FA2174A
:100E8000B307E407F50720F0A21BB30BE40BF50B47
:100E9000661F771F881F991F1A9469F760957095D0
:100EA000809590959B01AC01BD01CF010895002470
:100EB000552704C0080E591F880F991F009729F065
:100EC00076956795B8F37105B9F7802D952F08953C
:100ED000991B79E004C0991F961708F0961B881F8C
:100EE0007A95C9F780950895EE0FFF1F0590F4914C
:080EF000E02D0994F894FFCFF6
:040EF80000000101F4
:00000001FF
