:100000000C9454000C947C000C947C000C947C00A8
:100010000C947C000C947C000C947C000C947C0070
:100020000C947C000C947C000C947C000C947C0060
:100030000C94920C0C947C000C947C000C947C002E
:100040000C942E090C947C000C947C000C947C0085
:100050000C9462090C947C000C947C000C94340584
:100060000C947D050C947C000C947C000C947C001A
:10007000018040201008040201201004020108043D
:10008000020802010101010101010103030303034D
:1000900002020203002F2B2700322E2A00312D29C5
:1000A00000302C280603F90911241FBECFEFD4E03D
:1000B000DEBFCDBF11E0A0E0B1E0E8EEF2E202C0A9
:1000C00005900D92AA3DB107D9F722E0AAEDB1E063
:1000D00001C01D92A13FB207E1F710E0C4E5D0E0F6
:1000E00004C02197FE010E943E11C235D107C9F715
:1000F0000E94780C0C9472110C94000080E40E9411
:100100004B0DBC01990F880B990B0E94620F20E0E8
:1001100030E040EC50E40E94171020E030E040E86E
:100120005AE30E9417106093E8017093E9018093ED
:10013000EA019093EB0163E071E08FE192E00E94AD
:10014000A20A6AE571E08FE192E00E94A20A409162
:10015000E8015091E9016091EA017091EB0122E020
:1001600030E08FE192E00E94760C6BE071E08FE16D
:1001700092E00C94BF0ACF93DF93CDB7DEB72F97F1
:100180000FB6F894DEBF0FBECDBFCE0101960E9420
:100190002F08209100018A81622F0E949A10682FF7
:1001A00070E06F5F7F4F822F0E9491108C3308F0B8
:1001B0008C531C8691E09D879E879F879E01245FBC
:1001C0003F4F40E060E00E94C00786E00E94980731
:1001D0002F960FB6F894DEBF0FBECDBFDF91CF9143
:1001E000089561E084E00E94610D61E082E00E9478
:1001F000610D61E083E00E94610D61E086E00E9494
:10020000610D60E080E40E94610D62E087E00E9481
:10021000610D62E088E00E94610D62E089E00E9469
:10022000610D62E08AE00E94610D61E084E00E945D
:10023000B90D60E082E00E94B90D60E083E00E94A9
:10024000B90D61E086E00E94B90D9FE088ED0FB620
:10025000F894A8958FBD90BF0FBEA89526E040E00A
:1002600052EC61E070E08FE192E00E94970968EE45
:1002700073E080E090E00E940F0DA8958FE192E07E
:100280000E94AB0A6DE071E08FE192E00E94A20A49
:1002900061E171E08FE192E00E94A20A67E171E002
:1002A0008FE192E00E94A20A4AE050E062E170E031
:1002B0008FE192E00E94730B63EB71E08FE192E0BB
:1002C0000E94A20A4AE050E062E070E08FE192E012
:1002D0000E94730B63EB71E08FE192E00E94A20A2F
:1002E0004AE050E063EE77E08FE192E00E94730B0A
:1002F00067E171E08FE192E00E94A20A69E171E09A
:100300008FE192E00E94BF0A62E271E08FE192E029
:100310000E94A20A88EF91E00E94360668E670E02B
:1003200088EF91E00E944C0688EF91E00E947006F1
:1003300081110CC084E00E94AF070E94B4076EE2F6
:1003400071E08FE192E00E94BF0A0EC061E371E0AC
:100350008FE192E00E94A20A4AE050E068E670E075
:100360008FE192E00E947A0B67E471E08FE192E006
:100370000E94A20A6EE271E08FE192E00E94BF0A41
:1003800066E571E08FE192E00E94A20A87E00E9498
:10039000090E4AE050E0BC018FE192E00E94730B2D
:1003A0006CE571E08FE192E00E94A20A88E00E9471
:1003B000090E4AE050E0BC018FE192E00E94730B0D
:1003C00063E671E08FE192E00E94A20A89E00E9458
:1003D000090E4AE050E0BC018FE192E00E94730BED
:1003E0006AE671E08FE192E00E94A20A8AE00E9430
:1003F000090E4AE050E0BC018FE192E00E947A0BC6
:100400000E947E0020E030E040EA50E46091E80184
:100410007091E9018091EA019091EB010E94B30E85
:1004200087FF06C061E771E08FE192E00E94BF0A9A
:1004300020E030E040EA50E46091E8017091E90189
:100440008091EA019091EB010E94B30E87FF2CC0CE
:1004500061E086E00E94B90D62E370E080E090E028
:100460000E940F0D60E086E00E94B90D62E370E02B
:1004700080E090E00E940F0D61E086E00E94B90DDF
:1004800062E370E080E090E00E940F0D60E086E0A3
:100490000E94B90D68EE73E080E090E00E940F0DBD
:1004A0000E947E00A895C4CF6DE871E08FE192E0D4
:1004B0000E94A20A61E082E00E94610D61E082E098
:1004C0000E94B90D64E670E080E090E00E940F0D9C
:1004D00063E070E08CED91E00E9417036EE271E042
:1004E0008FE192E00E94BF0A6BE971E08FE192E038
:1004F0000E94A20A6EE271E08FE192E00E94BF0AC0
:1005000060E086E00E94B90DA8950895CF92DF9231
:10051000EF92FF920F931F930E94DC0C0091E40175
:100520001091E5012091E6013091E7016B017C011A
:10053000C01AD10AE20AF30A9701860104361105AE
:100540002105310508F450C06093E4017093E50182
:100550008093E6019093E7018091DA019091DB01AD
:100560008130910531F08A35910519F0843B910570
:1005700011F40E947E0086E00E94090E61E0892B42
:1005800009F060E086E00E94B90D8091DA01909157
:10059000DB01843B91052CF401969093DB01809361
:1005A000DA018091DA019091DB01843B9105E1F45D
:1005B0000E94BB0065EB71E08FE192E00E94A20A0D
:1005C00068EE73E080E090E00E940F0DA89560E077
:1005D00083E00E94B90D60E082E00E94B90D60E006
:1005E00084E00E94B90DFFCF0E9488036091DA0178
:1005F0007091DB018CED91E00E943503A8951F916D
:100600000F91FF90EF90DF90CF9008958CED91E0E7
:100610000C940A03FC0110828FEF818313821282F3
:1006200082E2848386E98583178216820895CF93B8
:10063000DF93EC01862F68839FEF99831B821A82D8
:100640002091F0013091F1013F832E83D093F1018D
:10065000C093F00160E00E94B90D61E088810E94C2
:10066000610D81E0DF91CF910895CF92DF92EF92FB
:10067000FF92CF93DF93EC019B0177FD06C0653BB2
:1006800071052CF024EB30E002C020E030E029833B
:100690008C81C82ED12CE12CF12C97E0CC0CDD1CE8
:1006A000EE1CFF1C9A95D1F76D8170E0681B7109F3
:1006B000CB01770FAA0BBB0BBC01CD0147E0660F46
:1006C000771F881F991F4A95D1F7032E000C440B02
:1006D000550B0E94E710B901CA0124EB30E040E05D
:1006E00050E00E94C810C701B601620F731F841F3B
:1006F000951F20E430E040E050E00E94C8103B83AA
:100700002A83DF91CF91FF90EF90DF90CF900895F3
:100710006F927F928F929F92AF92BF92CF92DF9211
:10072000EF92FF921F93CF93DF93CDB7DEB7CDB695
:10073000DEB60E94DC0C8090EC019090ED01A09060
:10074000EE01B090EF01681579058A059B0558F018
:1007500024E1820E911CA11CB11C681579058A0543
:100760009B0508F495C06093EC017093ED018093B4
:10077000EE019093EF01E091F001F091F101DF01C2
:1007800010E0109761F012968D919C911397892B30
:1007900009F01F5F16960D90BC91A02DF2CF11238A
:1007A00009F476C0812F90E0880F991FADB7BEB7CE
:1007B000A81BB90B0FB6F894BEBF0FBEADBF8DB767
:1007C0009EB7019620E0309789F042815381452BF6
:1007D00049F0A22FB0E0AA0FBB1FA80FB91FED93DD
:1007E000FC932F5F0680F781E02DEDCF5C01FC01CB
:1007F00030E021E02117E1F0828093804191519116
:10080000D4011296ED90FC901397DA0112966D9137
:100810007C911397E616F70648F451834083AF01A5
:1008200042505109DA018D929C9231E02F5FE2CF64
:100830003111DCCF7C01912CD701ED91FD917D012F
:1008400061E080810E94B90D93949112F5CFF9B2C5
:10085000812C912CE12C6F2C712CD501ED91FD9107
:100860005D0182819381860D971D2F2DF9B2F216BD
:1008700008F493942F2DA4014F0D511D8417950753
:10088000A8F760E080810E94B90DE394E112E5CF02
:100890000FB6F894DEBE0FBECDBE0FB6F894DEBE26
:1008A0000FBECDBEDF91CF911F91FF90EF90DF90F3
:1008B000CF90BF90AF909F908F907F906F90089552
:1008C000699A499A419A619A8FEF8CBD8AE28ABDF2
:1008D00080EF8BBD08958091D00208958BBD8BE28F
:1008E0009EE09A95F1F78ABD399BFECF96E09A95E6
:1008F000F1F700C08ABD0BB406FEF2CF8EE08A95F8
:10090000F1F78CB59FEF9CBD619A08956998499A5B
:10091000399BFECF86E08A95F1F700C0699A8EE098
:100920008A95F1F79BB5892F807295FD04C098E0F8
:100930009093D002089581E00895FF920F931F9342
:10094000CF93DF93162F042F21E02093D002FC01D8
:10095000208120FD03C023E02093D002499A399BD7
:10096000FECFF6E0FA95F1F700C0699826E02A95E7
:10097000F1F700C04998699A0BB407FC02C087E000
:100980001AC0EC01FF24FA948091D002837009F11F
:10099000499888818CBD80EF0E946E0461988EEF2B
:1009A0000E946E0480FF0FC09091D002892F817049
:1009B00090FF05C086E08093D00280E01FC095E0E4
:1009C0009093D0021BC08091D0028E7F8093D00282
:1009D0000DC0619880EF0E946E048883113011F47D
:1009E000FCBC01C01CBC8EEF0E946E04115021960D
:1009F0001111CACF01110E94860481E0DF91CF91CD
:100A00001F910F91FF9008959091F3019F5F9F7048
:100A10002091F2019217E1F3E92FF0E0EF51FD4F41
:100A200080839093F30108958091F4019091F501F2
:100A30009817E1F3E091F401EF5FEF70E093F401B8
:100A4000F0E0EF52FD4F808108959091F401809184
:100A5000F501891B8F7008959091F3018091F20147
:100A60009F5F891B8F7008951F920F920FB60F9290
:100A700011240F931F932F933F934F935F936F9383
:100A80007F938F939F93AF93BF93CF93EF93FF93F6
:100A90000091FC011091FD010115110569F0C09153
:100AA000F5018091F4018C1739F00E94250590E042
:100AB000F8010995C093F4011092F6016198399BF1
:100AC00004C0599BFCCF88EA01C088EF8ABD80EF43
:100AD0008BBDFF91EF91CF91BF91AF919F918F917E
:100AE0007F916F915F914F913F912F911F910F9146
:100AF0000F900FBE0F901F9018951F920F920FB678
:100B00000F9211240F931F932F933F934F935F9353
:100B10006F937F938F939F93AF93BF93CF93EF93F5
:100B2000FF938091F601823009F44DC028F48823A8
:100B300059F0813059F186C0843009F44AC018F167
:100B4000853009F467C07EC08CB5882331F08CB540
:100B500086959091F701891331C00CB400FE0DC049
:100B6000E091FE01F091FF01309729F08091F301AF
:100B70008093F201099581E001C084E08093F60141
:100B80001CBC619A5DC08CB5811118C08091F201C6
:100B90009091F301981791F08091F2018F5F8F701F
:100BA0008093F201E091F201F0E0EF51FD4F80817E
:100BB0008CBD82E08093F601619A03C0619888EA57
:100BC0008ABD80E73EC083E08093F60161981CBC3B
:100BD00037C085E08093F601619880E78BBD009176
:100BE000FC011091FD010115110561F1C091F501A4
:100BF0008091F4018C1731F18BB58E7AE9F30BB447
:100C000005FE20C00E94250590E0F8010995C093DB
:100C1000F40118C084E08093F6019CB58091F50141
:100C20008F5F8F702091F401281749F08093F501B0
:100C3000E091F501F0E0EF52FD4F9083A1CF619874
:100C40008EE78BBDFF91EF91CF91BF91AF919F91B7
:100C50008F917F916F915F914F913F912F911F9154
:100C60000F910F900FBE0F901F9018951092FB01DF
:100C70001092FA011092F9010C94600481E08093C3
:100C8000F901E0910101F0910201660F6083809308
:100C9000FB018093FA0108950C943E06462F609163
:100CA000FA0180910101909102010E949D0410922D
:100CB000FB011092FA011092F90181110FC00E94FC
:100CC0006B04853039F0863019F0813029F40895AD
:100CD00082E0089583E0089584E0089580E0089517
:100CE00061E00C944E06CF938091F9018823C1F006
:100CF0008091FA01803218F080E090E01BC0809172
:100D0000FB01E0910101F0910201E80FF11D608308
:100D10008091FB018F5F8093FB018093FA0108C0F3
:100D2000C62F0E942C05882339F38C2F0E940405BE
:100D300081E090E0CF9108954F925F926F927F9201
:100D4000AF92BF92CF92EF92FF920F931F93CF93E8
:100D5000DF935C01F62EC42F28013901EE20F9F053
:100D60000E943E06DE2DD43008F0D3E0D15098F03A
:100D70008D2F880F880F880FA301920104C056950C
:100D80004795379527958A95D2F7CA01B901C501CC
:100D90000E947306EBCF60E0C5010E944E06CF5F54
:100DA000C13208F0C0E2E0910101F09102018F2D03
:100DB000880F816080834C2D6C2F80910101909170
:100DC00002010E949D0491E09093FB01811103C0F8
:100DD0009093FA0104C0C093FA018FEF8C0FDF915A
:100DE000CF911F910F91FF90EF90CF90BF90AF9058
:100DF0007F906F905F904F900895CF92EF920F93F6
:100E00001F93C22EE12C00E010E098010E949C0686
:100E10001F910F91EF90CF90089521E00C94FD0663
:100E20008091FA01882331F090E02091FB01821B30
:100E3000910908950E94250590E008950E941007E9
:100E4000892BB1F08091FA01882371F02091FB0188
:100E5000E0910101F0910201E20FF11D808190E02B
:100E60002F5F2093FB0108950E94140590E00895E0
:100E70008FEF9FEF08950C947306CF93DF93D82FD5
:100E8000C62F68E670E088EF91E00E944C066D2F57
:100E900088EF91E00E9473066C2F88EF91E00E942A
:100EA000730688EF91E0DF91CF910C947006CF929A
:100EB000DF92EF92FF92F82E68E670E088EF91E003
:100EC0000E944C066F2D88EF91E00E94730688EF18
:100ED00091E00E9470060E94DC0C6B017C010E9474
:100EE000DC0CDC01CB018C199D09AE09BF098436ED
:100EF0009105A105B10588F441E050E068E670E095
:100F000088EF91E00E940D07813049F062E070E0C7
:100F100080E090E00E940F0DE2CF80E004C088EFF7
:100F200091E00E941E07FF90EF90DF90CF90089510
:100F3000682F8EE00C943D07682F8FE00C943D07DE
:100F40008FE00C945707882329F00E94A0078F7721
:100F5000886003C00E94A007877F0C949C070E94B2
:100F6000980780E00C94A3070E94A0078D7F0C9443
:100F70009C076AE00E949A108295807F890F0895ED
:100F8000DF92EF92FF920F931F93CF93DF9300D0E6
:100F90001F92CDB7DEB7D42E890189836A834B8334
:100FA00068E670E088EF91E00E944C066BE070E02C
:100FB00088EF91E00E943B07E12CF12C82E0E816DB
:100FC000F104B9F48D2D0E94B907F801638170E036
:100FD0009B0146E0220F331F4A95E1F79281692F6A
:100FE00070E07695762F662777956795622B732B41
:100FF00013C0E1E0F0E0EC0FFD1FEE0DFF1D80815E
:101000000E94B907F801EE0DFF1D608170E0769532
:10101000762F662777956795682B88EF91E00E9479
:101020003B07FFEFEF1AFF0A83E0E816F10431F601
:1010300088EF91E00F900F900F90DF91CF911F916B
:101040000F91FF90EF90DF900C947006982F82958F
:101050008F706AE00E9491109F70890F0895BF926F
:10106000CF92DF92EF92FF920F931F93CF93DF9374
:10107000CDB7DEB727970FB6F894DEBF0FBECDBF52
:101080008C0168E670E088EF91E00E944C0660E019
:1010900070E088EF91E00E943B0788EF91E00E94AA
:1010A00070060E94DC0C6B017C010E94DC0CDC01F0
:1010B000CB018C199D09AE09BF0984369105A105A4
:1010C000B10508F04FC047E050E068E670E088EFF7
:1010D00091E00E940D07873039F062E070E080E017
:1010E00090E00E940F0DE1CFCE0101966C01F12C32
:1010F000B12C88EF91E00E941E07E82E95E08E2D1E
:10110000F91209C08F710E9426088E83BE2CBB1C69
:10111000BB24BB1C04C00E942608F6018083F39404
:10112000FFEFCF1ADF0A87E0F812E3CF2F8191E0BB
:10113000822FB91204C090E08053984F03C090E012
:101140008459984F3981F80130833A8131833B814A
:1011500032833D8133833E813483968385838C81C2
:101160008783228727960FB6F894DEBF0FBECDBFC8
:10117000DF91CF911F910F91FF90EF90DF90CF9073
:10118000BF900895FC0124853585F901E05CFF4F8F
:1011900080819181329620813181821B930B8F73E4
:1011A00099270895FC0124853585F901EE5BFF4FF1
:1011B000808191813297408151814817590731F0E0
:1011C000F901E80FF91F808190E008958FEF9FEFFC
:1011D0000895FC0184859585FC01EE5BFF4F20811D
:1011E0003181DC01A05CBF4F4D915C9142175307E8
:1011F00061F0DC01A20FB31F8C912F5F3F4F2F7363
:1012000033273183208390E008958FEF9FEF089577
:10121000FC0184859585DC01A05CBF4FFC01EE5B81
:10122000FF4F808191818D939C930895FC01A28949
:10123000B38981E090E0058C02C0880F991F0A9461
:10124000E2F72C9130E028233923232BD1F30688B1
:10125000F789E02D608381E090E008951F920F925E
:101260000FB60F9211242F933F934F936F937F9359
:101270008F939F93EF93FF9340B52091C2023091DB
:10128000C302C90101968F7399276091C4027091BE
:10129000C5028617970741F0F901EE57FD4F4083CD
:1012A0009093C3028093C202FF91EF919F918F911F
:1012B0007F916F914F913F912F910F900FBE0F90A3
:1012C0001F9018951F920F920FB60F9211242F9313
:1012D0003F934F936F937F938F939F93EF93FF93DE
:1012E0004091730020917E0230917F02C9010196E6
:1012F0008F739927609180027091810286179707FA
:1013000041F0F901E25CFD4F408390937F028093AE
:101310007E02FF91EF919F918F917F916F914F91FD
:101320003F912F910F900FBE0F901F9018958F92A5
:101330009F92AF92BF92FF920F931F93CF93DF9331
:10134000EC014A015B01F22EEA89FB8901E010E021
:10135000C8010E8C02C0880F991F0A94E2F780839F
:1013600060E874E88EE190E0A50194010E94A61067
:10137000DA01C9010197A109B109B695A795979519
:101380008795EE85FF85292F33272083E889F98902
:101390008083E88DF98DF082EC89FD892081C80178
:1013A0000A8C02C0880F991F0A94E2F7822B80836F
:1013B000EC89FD892081C8010B8C02C0880F991F20
:1013C0000A94E2F7822B8083EC89FD8980810C8C62
:1013D00002C0000F111F0A94E2F7082B0083DF916F
:1013E000CF911F910F91FF90BF90AF909F908F90E2
:1013F0000895CF92DF92EF92FF92EFE1F2E0138235
:10140000128288EEC82E83E0D82EE12CF12CC48203
:10141000D582E682F78262EC71E07183608382E8B4
:1014200092E09587848782E490E09787868781E4BD
:1014300090E0918B808B86E490E0938B828B85E4A7
:1014400090E0958B848B84E490E0918F808F80E492
:1014500090E0978B868B44E0428F33E0338F27E018
:10146000248F95E0958F81E0868FE0E0F2E0138293
:101470001282C482D582E682F782718360836EE332
:1014800072E07587648765E770E07787668764E751
:1014900070E0718B608B69E770E0738B628B68E73B
:1014A00070E0758B648B67E770E0718F608F63E726
:1014B00070E0778B668B428F338F248F958F868F6A
:1014C000FF90EF90DF90CF900895CF92DF92EF9250
:1014D000FF920F931F93CF93DF936C01EB017B017E
:1014E000E40EF51E00E010E0CE15DF0561F0699115
:1014F000D601ED91FC910190F081E02DC601099596
:10150000080F191FF1CFC801DF91CF911F910F91E3
:10151000FF90EF90DF90CF9008956115710579F0FD
:10152000FB0101900020E9F73197AF01461B570BF3
:10153000DC01ED91FC910280F381E02D099480E0C3
:1015400090E008950C948D0ADC01ED91FC910190DE
:10155000F081E02D09940F931F93CF93DF93EC015B
:101560006DE00E94A40A8C016AE0CE010E94A40AE8
:10157000800F911FDF91CF911F910F9108950F93CD
:101580001F93CF93DF93EC010E948D0A8C01CE0153
:101590000E94AB0A800F911FDF91CF911F910F9195
:1015A00008958F929F92AF92BF92CF92DF92EF9267
:1015B000FF920F931F93CF93DF93CDB7DEB7A19721
:1015C0000FB6F894DEBF0FBECDBF6C01142FE52F10
:1015D000CB01022F19A2223008F40AE07E0121E299
:1015E000E20EF11C802E912CA12CB12C612F7E2FAC
:1015F000A50194010E94A610802F622F0E949110D5
:10160000181B81E0E81AF1081A3014F4105D01C0CB
:10161000195CF7011083122FE32FCA01232B242B0F
:10162000252B21F7B701C6010E948D0AA1960FB69E
:10163000F894DEBF0FBECDBFDF91CF911F910F9108
:10164000FF90EF90DF90CF90BF90AF909F908F90E2
:101650000895CF92DF92EF92FF920F931F93CF9353
:10166000DF93EC016A017B012115310579F4E881F2
:10167000F9810190F081E02D642FDF91CF911F91CE
:101680000F91FF90EF90DF90CF9009942A303105B1
:10169000E9F477FF1AC06DE20E94A40A8C01442786
:1016A0005527BA014C195D096E097F092AE0CE0160
:1016B0000E94D10A800F911FDF91CF911F910F914E
:1016C000FF90EF90DF90CF9008952AE0B701A60138
:1016D000CE01DF91CF911F910F91FF90EF90DF909E
:1016E000CF900C94D10A9A01AB01770F660B770B60
:1016F0000C94290B0F931F93CF93DF93EC019A0166
:10170000AB01770F660B770B0E94290B8C01CE0182
:101710000E94AB0A800F911FDF91CF911F910F9113
:1017200008954F925F926F927F928F929F92AF92A5
:10173000BF92CF92DF92EF92FF92CF93DF93EC01B3
:101740006A017B01B22E9A01AB01C701B6010E946A
:101750008C10882319F06EEC71E027C02601370148
:10176000E89477F82FEF3FEF4FE75FE7C301B2014F
:101770000E948C1081110DC02FEF3FEF4FE75FE704
:10178000C301B2010E94B30E18161CF462ED71E0A1
:101790000CC02FEF3FEF4FE75FE4C701B6010E9497
:1017A000121018169CF466ED71E0CE01DF91CF9116
:1017B000FF90EF90DF90CF90BF90AF909F908F9071
:1017C0007F906F905F904F900C948D0A2FEF3FEFBA
:1017D0004FE75FECC701B6010E94B30E87FDE3CF70
:1017E00020E030E0A901C701B6010E94B30E87FFD7
:1017F0000AC06DE2CE010E94A40A4C01F7FAF094EF
:10180000F7F8F09402C0812C912CA12C60E070E0DC
:1018100080E09FE3AB1441F020E030E040E251E48F
:101820000E94B80EA394F6CF9B01AC01C701B6018C
:101830000E94470E2B013C010E94310F6B017C017D
:101840000E94600F9B01AC01C301B2010E94460ED1
:101850002B013C012AE0B701A601CE010E94D10A6A
:101860007C01E80CF91CBB2039F063EB71E0CE0180
:101870000E948D0AE80EF91EDB2CDD2039F120E0F4
:1018800030E040E251E4C301B2010E9417102B0185
:101890003C010E942A0F4B01770FAA08BB082AE0DF
:1018A00030E0B501A401CE010E94290BE80EF91E1B
:1018B000C501B4010E94620F9B01AC01C301B201DA
:1018C0000E94460E2B013C01DA94D7CFC701DF916D
:1018D000CF91FF90EF90DF90CF90BF90AF909F900F
:1018E0008F907F906F905F904F9008950C94910B24
:1018F0000E94370D0E94F1000E948602FDCFE1E7B1
:10190000F0E08081887F8083A2E7B0E08C918C7FBB
:1019100081608C938081877E80838081887F8360D3
:10192000808308951F920F920FB60F9211242F9368
:101930003F938F939F93AF93BF938091C7029091F2
:10194000C802A091C902B091CA023091C60226E035
:10195000230F2D3730F029E8230F0396A11DB11D69
:1019600003C00296A11DB11D2093C6028093C70239
:101970009093C802A093C902B093CA028091CB028F
:101980009091CC02A091CD02B091CE020196A11D02
:10199000B11D8093CB029093CC02A093CD02B09363
:1019A000CE02BF91AF919F918F913F912F910F9058
:1019B0000FBE0F901F9018952FB7F8946091C70233
:1019C0007091C8028091C9029091CA022FBF0895F8
:1019D0003FB7F8948091CB029091CC02A091CD02B8
:1019E000B091CE0229B309B601FE05C02F3F19F010
:1019F0000196A11DB11D3FBFBA2FA92F982F88278F
:101A0000820F911DA11DB11DBC01CD0143E0660FE8
:101A1000771F881F991F4A95D1F708950895CF928F
:101A2000DF92EF92FF92CF93DF936B017C010E94D4
:101A3000E80CEB01C114D104E104F10489F00E9427
:101A40000E0D0E94E80C6C1B7D0B683E734090F3FA
:101A500081E0C81AD108E108F108C851DC4FF1CF84
:101A6000DF91CF91FF90EF90DF90CF900895789421
:101A70008BB383608BBBD3988AB3887F83608ABB28
:101A80008AB782608ABF0E947F0C83B1887F86609C
:101A900083B91F9A089586FD8F7394B12091CF0268
:101AA0002295220F220F207C9F73922B94B994B120
:101AB000907F892B84B91E9A1E99FECF80B191B177
:101AC0000895CF93DF9386FF08C0A82FAF73A63089
:101AD00010F485E001C086E18A1BA82FB0E0FD016B
:101AE000E059FF4F9491FD01EE57FF4FA491AA23B7
:101AF00009F43CC0B0E0FD01E056FF4FE491CE2F69
:101B0000D0E0FD01E456FF4FE4912E2F30E0FD01BF
:101B1000E856FF4FA491B0E0892F809561110DC068
:101B20004FB7F894988198239883F901908198236E
:101B300090839C9189238C930EC0623071F44FB7CF
:101B4000F894588185238883F9018081892B8083CB
:101B5000EC919E2B9C934FBF09C02FB7F8943C91FA
:101B600083238C93E8819E2B98832FBFDF91CF91A5
:101B70000895CF93DF9386FF08C0982F9F73963008
:101B800010F485E001C086E1891BA82FB0E0FD01BB
:101B9000E059FF4F9491FD01EE57FF4FA491AA2306
:101BA000A9F18D3019F48BB38F7304C0833021F405
:101BB0008BB38F7C8BBB0DC08E3021F48091720073
:101BC0008F7305C0823029F4809172008F7C8093DE
:101BD0007200B0E0FD01E456FF4FC491D0E0FD017A
:101BE000E856FF4FA491B0E0892F80952FB761117F
:101BF00005C0F89498819823988304C0F894E881EC
:101C0000E92BE8839C9189238C932FBFDF91CF919F
:101C1000089587FF08C0982F9F77963010F485E0CD
:101C200001C086E1891B282F30E0F901E059FF4F00
:101C30009491F901EE57FF4FE491EE2321F18D309D
:101C400019F48BB38F7304C0833021F48BB38F7C72
:101C50008BBB0DC08E3021F4809172008F7305C054
:101C6000823029F4809172008F7C80937200F0E0C2
:101C7000EC56FF4FA491B0E0EC91E92381E090E0B5
:101C800021F480E0089580E090E008955058BB274B
:101C9000AA270E945E0E0C94D80F0E94CA0F38F03B
:101CA0000E94D10F20F039F49F3F19F426F40C94D0
:101CB000C70F0EF4E095E7FB0C94C10FE92F0E94CB
:101CC000E90F58F3BA17620773078407950720F0E6
:101CD00079F4A6F50C940B100EF4E0950B2EBA2FA8
:101CE000A02D0B01B90190010C01CA01A001112422
:101CF000FF27591B99F0593F50F4503E68F11A16CE
:101D0000F040A22F232F342F4427585FF3CF46955E
:101D100037952795A795F0405395C9F77EF41F1680
:101D2000BA0B620B730B840BBAF09150A1F0FF0F4A
:101D3000BB1F661F771F881FC2F70EC0BA0F621F36
:101D4000731F841F48F4879577956795B795F79526
:101D50009E3F08F0B0CF9395880F08F09927EE0FBB
:101D60009795879508950E949D0F08F481E0089546
:101D70000E94CC0E0C94D80F0E94D10F58F00E94F4
:101D8000CA0F40F029F45F3F29F00C94C10F5111A4
:101D90000C940C100C94C70F0E94E90F68F3992360
:101DA000B1F3552391F3951B550BBB27AA27621757
:101DB0007307840738F09F5F5F4F220F331F441F64
:101DC000AA1FA9F335D00E2E3AF0E0E832D0915098
:101DD0005040E695001CCAF72BD0FE2F29D0660F85
:101DE000771F881FBB1F261737074807AB07B0E8C8
:101DF00009F0BB0B802DBF01FF2793585F4F3AF0CE
:101E00009E3F510578F00C94C10F0C940C105F3F6D
:101E1000E4F3983ED4F3869577956795B795F79553
:101E20009F5FC9F7880F911D9695879597F908953B
:101E3000E1E0660F771F881FBB1F621773078407D7
:101E4000BA0720F0621B730B840BBA0BEE1F88F7E6
:101E5000E09508950E94310F6894B1110C940C1014
:101E600008950E94F10F88F09F5798F0B92F992795
:101E7000B751B0F0E1F0660F771F881F991F1AF075
:101E8000BA95C9F714C0B13091F00E940B10B1E0BF
:101E900008950C940B10672F782F8827B85F39F0BE
:101EA000B93FCCF3869577956795B395D9F73EF40E
:101EB00090958095709561957F4F8F4F9F4F0895B6
:101EC000E89409C097FB3EF49095809570956195D4
:101ED0007F4F8F4F9F4F9923A9F0F92F96E9BB278A
:101EE0009395F695879577956795B795F111F8CF06
:101EF000FAF4BB0F11F460FF1BC06F5F7F4F8F4F71
:101F00009F4F16C0882311F096E911C0772321F066
:101F10009EE8872F762F05C0662371F096E8862FFE
:101F200070E060E02AF09A95660F771F881FDAF755
:101F3000880F9695879597F90895990F0008550F82
:101F4000AA0BE0E8FEEF16161706E807F907C0F03F
:101F500012161306E407F50798F0621B730B840B47
:101F6000950B39F40A2661F0232B242B252B21F421
:101F700008950A2609F4A140A6958FEF811D811DC1
:101F8000089597F99F6780E870E060E008959FEFFB
:101F900080EC089500240A94161617061806090600
:101FA000089500240A9412161306140605060895CF
:101FB000092E0394000C11F4882352F0BB0F40F457
:101FC000BF2B11F460FF04C06F5F7F4F8F4F9F4F97
:101FD000089557FD9058440F551F59F05F3F71F019
:101FE0004795880F97FB991F61F09F3F79F0879580
:101FF0000895121613061406551FF2CF4695F1DF09
:1020000008C0161617061806991FF1CF8695710598
:10201000610508940895E894BB2766277727CB01CC
:1020200097F908950E949D0F08F48FEF08950E947C
:1020300029100C94D80F0E94CA0F38F00E94D10FBB
:1020400020F0952311F00C94C10F0C94C70F0C9441
:102050000C100E94E90F78F39923C9F35523B9F3C3
:10206000950F50E0551FAA27EE27FF27BB27002416
:102070000894679520F4E20FF31FB41F0A1E220F85
:10208000331F441FAA1F6695A9F7779530F4F30F05
:10209000B41F0A1E121E08F46395330F441FAA1FB3
:1020A000221F769599F7879520F4B40F0A1E121E09
:1020B000631F440FAA1F221F331F8695A9F7862F7F
:1020C000712D602D11249F5750409AF0F1F0882314
:1020D0004AF0EE0FFF1FBB1F661F771F881F91502E
:1020E0005040A9F79E3F510580F00C94C10F0C940D
:1020F0000C105F3FE4F3983ED4F38695779567958F
:10210000B795F795E7959F5FC1F7FE2B880F911D57
:102110009695879597F908950E949D0F880B990BC6
:102120000895002480FD060E660F11F08695D1F704
:10213000802D0895991B79E004C0991F961708F027
:10214000961B881F7A95C9F780950895A1E21A2EEB
:10215000AA1BBB1BFD010DC0AA1FBB1FEE1FFF1F4B
:10216000A217B307E407F50720F0A21BB30BE40B9B
:10217000F50B661F771F881F991F1A9469F76095E2
:102180007095809590959B01AC01BD01CF0108959C
:10219000052E97FB1EF400940E94DF1057FD07D018
:1021A0000E94A61007FC03D04EF40C94DF1050954B
:1021B0004095309521953F4F4F4F5F4F0895909533
:1021C0008095709561957F4F8F4F9F4F08956894CC
:1021D0000013E894A0E0B0E0E0EFF0E10C940F1100
:1021E000EFEFE7F959016A015E23550FEE08FE2C67
:1021F00087019B01AC019E23990F660B762FCB01C3
:102200000E944411CDB7DEB7EAE00C942B112F9257
:102210003F924F925F926F927F928F929F92AF9276
:10222000BF92CF92DF92EF92FF920F931F93CF93C3
:10223000DF93CDB7DEB7CA1BDB0B0FB6F894DEBF5A
:102240000FBECDBF09942A88398848885F846E8480
:102250007D848C849B84AA84B984C884DF80EE80CA
:10226000FD800C811B81AA81B981CE0FD11D0FB6D3
:10227000F894DEBF0FBECDBFED010895EE0FFF1F36
:102280000590F491E02D0994DF93CF939F92A0E401
:102290009A2E0024D001E001F00116950795F794DD
:1022A000E794D794C794B794A79448F41068A20F02
:1022B000B31FC41FD51FE61FF71F081E191E220FCC
:1022C000331F441F551F661F771F881F991F9A943D
:1022D00021F79D01AE01BF01C00111249F90CF9154
:0822E000DF910895F894FFCF8F
:1022E80002D1024261746572696500560046573A28
:1022F80000302E302E30002C0031313A31353A334F
:10230800320052544320696E69742E2E2E004F4BB2
:1023180000436879626120525443206E61206164F1
:10232800726573653A2000444950312D3420696E36
:1023380069742E2E2E00444950313D0020444950E6
:10234800323D0020444950333D0020444950343D3B
:10235800004368796261202D206E61706574692080
:1023680062617465726965203C3556210053657257
:10237800766F20696E69742E2E2E00525443206E9B
:102388006173746176756A6920696E7465727661C5
:102398006C2E2E2E00567970696E616D210000003A
:1023A80000001609650AC208E908D20808096E6122
:0A23B8006E00696E66006F76660025
:00000001FF
